S01A00004C6175666C696368742D4D756C7469706C652E73726563F5
S11300000C9434000C9451000C9451000C94510045
S11300100C9451000C9451000C9451000C94510018
S11300200C9451000C9451000C9451000C94510008
S11300300C9451000C9451000C9451000C945100F8
S11300400C9451000C9451000C9451000C945100E8
S11300500C9451000C9451000C9451000C945100D8
S11300600C9451000C94510011241FBECFEFD8E022
S1130070DEBFCDBF11E0A0E0B1E0ECE1F2E002C0F0
S113008005900D92A230B107D9F721E0A2E0B1E0CA
S113009001C01D92A430B207E1F70E9401010C9443
S11300A00C010C9400008630910568F445B121E000
S11300B030E0B90102C0660F771F8A95E2F7CB01E1
S11300C0842B85B908959C012650310926303105C9
S11300D068F448B1C90121E030E0B90102C0660FFB
S11300E0771F8A95E2F7CB01842B88B90895EF92A4
S11300F0FF920F931F93CF93DF937C01863091057A
S113010070F421E030E0A90102C0440F551F8A9524
S1130110E2F745B918B86130710599F41EC09C0125
S11301202650310926303105B0F715B8C90121E050
S113013030E0A90102C0440F551F8A95E2F748B97F
S1130140EACF8B01C1E0D0E0CE018E0D9F1D0E944D
S1130150530021960C171D07B9F7DF91CF911F911A
S11301600F91FF90EF900895FC018091020190910E
S113017003019A0121503109DB01A21BB30BA8171B
S1130180B90739F4209100013091010112161306C8
S11301904CF08E179F0771F42091000130910101FA
S11301A0332344F4209100013091010131952195CC
S11301B0310904C020910001309101013093010103
S11301C020930001BA010E947700BFEF23ED80E382
S11301D0B15020408040E1F700C0000020910201AE
S11301E0309103018091000190910101820F931FCE
S11301F0909303018093020108958FE384B987B932
S113020008950E94FD0043E050E069E070E080E062
S10F021090E00E94B400F7CFF894FFCFF8
S105021C0100DB
S9030000FC
