:100000000C9434000C9451000C9451000C94510049
:100010000C9451000C9451000C9451000C9451001C
:100020000C9451000C9451000C9451000C9451000C
:100030000C9451000C9451000C9451000C945100FC
:100040000C9451000C9451000C9451000C945100EC
:100050000C9451000C9451000C9451000C945100DC
:100060000C9451000C94510011241FBECFEFD8E026
:10007000DEBFCDBF11E0A0E0B1E0E2E2F2E002C0FD
:1000800005900D92A230B107D9F721E0A2E0B1E0CE
:1000900001C01D92A430B207E1F70E9404010C9444
:1000A0000F010C9400008630910558F421E030E0F7
:1000B000A90102C0440F551F8A95E2F745B918B847
:1000C00008959C01265031092630310558F415B8A1
:1000D000C90121E030E0A90102C0440F551F8A95F3
:1000E000E2F748B908958630910568F445B121E0FA
:1000F00030E0B90102C0660F771F8A95E2F7CB01A5
:10010000842B85B908959C0126503109263031058C
:1001100068F448B1C90121E030E0B90102C0660FBE
:10012000771F8A95E2F7CB01842B88B90895EF9267
:10013000FF920F931F93CF93DF938C017B010E945B
:10014000530081E0E816F10459F0C1E0D0E0C801A5
:100150008C0F9D1F0E9473002196EC16FD06B9F7C7
:10016000DF91CF911F910F91FF90EF900895FC01C7
:1001700080910201909103019A0121503109DB0124
:10018000A21BB30BA817B90739F4209100013091D5
:100190000101121613064CF08E179F0771F420917F
:1001A000000130910101332344F42091000130918A
:1001B000010131952195310904C020910001309150
:1001C00001013093010120930001BA010E949700C0
:1001D000BFEF23ED80E3B15020408040E1F700C045
:1001E0000000209102013091030180910001909163
:1001F0000101820F931F90930301809302010895E0
:100200008FE384B987B908950E94000149E050E066
:1002100069E070E080E090E00E94B700F7CFF894CA
:02022000FFCF0E
:020222000100D9
:00000001FF
