:100000000C9434000C9440000C944E000C943E0070
:100010000C943E000C943E000C943E000C943E0068
:100020000C943E000C943E000C943E000C943E0058
:100030000C943E000C943E000C945C000C943E002A
:100040000C943E000C943E000C943E000C943E0038
:100050000C943E000C943E000C943E000C943E0028
:100060000C943E000C943E0011241FBECFEFD8E04C
:10007000DEBFCDBF0E9485000C9488000C94000068
:100080001F920F920FB60F9211248F9386E487BDB3
:100090008F910F900FBE0F901F9018951F920F9287
:1000A0000FB60F9211248F9385E787BD8F910F9024
:1000B0000FBE0F901F9018951F920F920FB60F92C0
:1000C00011248F9385B1809585B98F910F900FBEC4
:1000D0000F901F90189552985398209AE9E6F0E0F7
:1000E0008081856080838DB383608DBB84B58260A1
:1000F00084BDEEE6F0E080818260808386E487BD87
:10010000789485B5846085BD08950E946B00FFCF0B
:04011000F894FFCF91
:00000001FF
