S00D0000416D70656C2E7372656328
S11300000C9434000C943E000C943E000C943E007E
S11300100C943E000C943E000C943E000C943E0064
S11300200C943E000C943E000C943E000C943E0054
S11300300C943E000C943E000C943E000C943E0044
S11300400C943E000C943E000C943E000C943E0034
S11300500C943E000C943E000C943E000C943E0024
S11300600C943E000C943E0011241FBECFEFD8E048
S1130070DEBFCDBF0E9472000C9478000C94000087
S113008029982A982B9808950E944000299A2FEFC6
S113009083ED90E3215080409040E1F700C00000E0
S11300A02A9A2FEF81EE94E0215080409040E1F7AE
S11300B000C0000029982A982B9A2FEF83ED90E333
S11300C0215080409040E1F700C000002B982A9A0C
S11300D02FEF81EE94E0215080409040E1F700C082
S11300E00000089584B18E6084B90E944400FDCF5D
S10700F0F894FFCFAE
S9030000FC
