:100000000C9434000C943E000C943E000C943E0082
:100010000C943E000C943E000C943E000C943E0068
:100020000C943E000C943E000C943E000C943E0058
:100030000C943E000C943E000C943E000C943E0048
:100040000C943E000C943E000C943E000C943E0038
:100050000C943E000C943E000C943E000C943E0028
:100060000C943E000C943E0011241FBECFEFD8E04C
:10007000DEBFCDBF0E9444000C947B000C940000B6
:1000800084B18E6084B908950E9440000E944D00A2
:10009000FDCF29982A982B9808950E944900299A03
:1000A0002FEF83ED90E3215080409040E1F700C0B6
:1000B00000002A9A2FEF81EE94E02150804090407A
:1000C000E1F700C0000029982A982B9A2FEF83EDC2
:1000D00090E3215080409040E1F700C000002B9851
:1000E0002A9A2FEF81EE94E0215080409040E1F772
:0A00F00000C000000895F894FFCF4F
:00000001FF
