S012000052656164416E616C6F672E7372656344
S11300000C9434000C9451000C9451000C94510045
S11300100C9451000C9451000C9451000C94510018
S11300200C9451000C9451000C9451000C94510008
S11300300C9451000C9451000C9451000C945100F8
S11300400C9451000C9451000C9403010C94510035
S11300500C9451000C9484000C9451000C945100A5
S11300600C9451000C94510011241FBECFEFD8E022
S1130070DEBFCDBF11E0A0E0B1E0E2ECF2E002C0EF
S113008005900D92A430B107D9F721E0A4E0B1E0C6
S113009001C01D92A730B207E1F70E947D000C94C5
S11300A05F010C940000ECE7F0E010828081806432
S11300B08083EAE7F0E080818760808380818062CA
S11300C0808310927B008081806880838081886037
S11300D0808308950E945300ECE7F0E08081806201
S11300E08083EAE7F0E080818064808378940895D7
S11300F00E94FB000E94E40008950E946A0088E7C1
S113010090E00E94CC00FFCF1F920F920FB60F9287
S113011011242F933F934F935F936F937F938F9308
S11301209F93AF93BF93EF93FF93CF93DF93CDB799
S1130130DEB72A97DEBFCDBFF89480917900809313
S11301400401809104014AE0BE016F5F7F4F90E09B
S11301500E942A01CE0101960E94EC0080E091E009
S11301600E94EC0078942A960FB6F894DEBF0FBE76
S1130170CDBFDF91CF91FF91EF91BF91AF919F914F
S11301808F917F916F915F914F913F912F910F903C
S11301900FBE0F901F901895909306018093050150
S11301A01092C50087E68093C400E1ECF0E0808102
S11301B088618083808180688083E2ECF0E08081C4
S11301C08660808378940895E0ECF0E0908195FF58
S11301D0FDCF8093C6000895CF93DF93EC0188810F
S11301E0882331F021960E94E40089918111FBCF8C
S11301F0DF91CF910895E0ECF0E080818823ECF763
S11302008091C60008951F920F920FB60F92112489
S11302102F933F934F935F936F937F938F939F930A
S1130220AF93BF93EF93FF93E0910501F091060123
S11302300995FF91EF91BF91AF919F918F917F911C
S11302406F915F914F913F912F910F900FBE0F903F
S11302501F901895BB274A3031F4992322F4BDE24C
S1130260909581959F4F0C943601BB27FB01552730
S1130270AA27880F991FAA1FA41710F0A41B8395FF
S11302805051B9F7A05DAA3308F0A95DA193009776
S113029079F7B111B1931192CB010C944F01DC01A8
S11302A0FC01672F71917723E1F7329704C07C91A9
S11302B06D9370836291AE17BF07C8F30895F894E5
S10502C0FFCF6A
S10702C20A0D00001D
S9030000FC
