S00E000044696D6D65722E73726563B8
S11300000C9434000C9451000C9451000C94510045
S11300100C9451000C9451000C9451000C94510018
S11300200C9451000C9451000C9451000C94510008
S11300300C9451000C9451000C9451000C945100F8
S11300400C9451000C9451000C9451000C945100E8
S11300500C9451000C9451000C9451000C945100D8
S11300600C9451000C94510011241FBECFEFD8E022
S1130070DEBFCDBF11E0A0E0B1E0E6E6F1E002C0F2
S113008005900D92A230B107D9F721E0A2E0B1E0CA
S113009001C01D92A430B207E1F70E94A8000C949D
S11300A0B1000C9400002091020130910301261745
S11300B0370739F4409100015091010114161506D7
S11300C04CF02817390771F48091000190910101D7
S11300D0992344F4809100019091010191958195B7
S11300E0910904C080910001909101019093010154
S11300F08093000130938900209388008FE39CE96A
S11301000197F1F700C00000209102013091030132
S11301108091000190910101820F931F909303013C
S1130120809302010895219A8FEF90E090938900C3
S113013080938800E0E8F0E080818068808380819B
S11301408B608083E1E8F0E08081826080830895A1
S11301500E9493006FEF70E080E090E00E945300F3
S1090160F9CFF894FFCF73
S1050166010092
S9030000FC
