:100000000C9434000C9451000C9451000C94510049
:100010000C9451000C9451000C9451000C9451001C
:100020000C9451000C9451000C9451000C9451000C
:100030000C9451000C9451000C9451000C945100FC
:100040000C9451000C9451000C9400010C9451003C
:100050000C9451000C947A000C9451000C945100B3
:100060000C9451000C94510011241FBECFEFD8E026
:10007000DEBFCDBF11E0A0E0B1E0ECEBF2E002C0EA
:1000800005900D92A430B107D9F721E0A4E0B1E0CA
:1000900001C01D92A830B207E1F70E9458000C94ED
:1000A0005C010C9400000E94F8000E94E100089599
:1000B000ECE7F0E0108280818064808380818F7D16
:1000C0008083EAE7F0E080818760808380818062BE
:1000D000808310927B00808180688083808188602B
:1000E0008083808180648083789483E590E00E949F
:1000F000C900FFCF1F920F920FB60F9211242F93BA
:100100003F934F935F936F937F938F939F93AF939F
:10011000BF93EF93FF93CF93DF93CDB7DEB72A97CB
:10012000DEBFCDBFF894809178002091790090E0F7
:10013000922B90930501809304018091040190918A
:1001400005014AE0BE016F5F7F4F0E942701CE018B
:1001500001960E94E90080E091E00E94E900789415
:100160002A960FB6F894DEBF0FBECDBFDF91CF91B8
:10017000FF91EF91BF91AF919F918F917F916F917F
:100180005F914F913F912F910F900FBE0F901F9055
:10019000189590930701809306011092C50087E699
:1001A0008093C400E1ECF0E08081886180838081ED
:1001B00080688083E2ECF0E08081866080837894C0
:1001C0000895E0ECF0E0908195FFFDCF8093C600AC
:1001D0000895CF93DF93EC018881882331F0219635
:1001E0000E94E10089918111FBCFDF91CF910895A9
:1001F000E0ECF0E080818823ECF78091C600089560
:100200001F920F920FB60F9211242F933F934F938B
:100210005F936F937F938F939F93AF93BF93EF936E
:10022000FF93E0910601F09107010995FF91EF918D
:10023000BF91AF919F918F917F916F915F914F91FE
:100240003F912F910F900FBE0F901F901895BB27D5
:100250004A3031F4992322F4BDE2909581959F4F65
:100260000C943301BB27FB015527AA27880F991F40
:10027000AA1FA41710F0A41B83955051B9F7A05DD5
:10028000AA3308F0A95DA193009779F7B111B19352
:100290001192CB010C944C01DC01FC01672F719190
:1002A0007723E1F7329704C07C916D93708362915C
:0C02B000AE17BF07C8F30895F894FFCF05
:0402BC000A0D000027
:00000001FF
