:100000000C9434000C9451000C9451000C94510049
:100010000C9451000C9451000C9451000C9451001C
:100020000C9451000C9451000C9451000C9451000C
:100030000C9451000C9451000C9451000C945100FC
:100040000C9451000C9451000C9421010C9451001B
:100050000C9451000C9485000C9451000C945100A8
:100060000C9451000C94510011241FBECFEFD8E026
:10007000DEBFCDBF11E0A0E0B1E0EEEFF2E002C0E4
:1000800005900D92A031B107D9F721E0A0E1B1E0D0
:1000900001C01D92A431B207E1F70E947E000C94CA
:1000A0007D010C940000ECE7F0E010828081806418
:1000B000808380818F7D8083EAE7F0E080818760A4
:1000C000808380818062808310927B008081806841
:1000D000808380818860808380818064808378943D
:1000E000089580FF03C085E091E0089580E091E0ED
:1000F00008950E9419010E94020108950E94530070
:1001000089E790E00E94EA00FFCF1F920F920FB69E
:100110000F9211240F931F932F933F934F935F934D
:100120006F937F938F939F93AF93BF93EF93FF93BF
:10013000CF93DF93CDB7DEB72A97DEBFCDBFF8945C
:10014000809178002091790090E0922B909311019A
:100150008093100180911001909111014AE0BE013D
:100160006F5F7F4F0E9448010CE710E0F80180812B
:1001700090E00E9471000E940A018AE091E00E94D2
:100180000A01CE0101960E940A018DE091E00E94D1
:100190000A01F801908181E08927808378942A966A
:1001A0000FB6F894DEBF0FBECDBFDF91CF91FF91A8
:1001B000EF91BF91AF919F918F917F916F915F91DF
:1001C0004F913F912F911F910F910F900FBE0F9064
:1001D0001F90189590931301809312011092C500FF
:1001E00087E68093C400E1ECF0E080818861808341
:1001F000808180688083E2ECF0E08081866080838B
:1002000078940895E0ECF0E0908195FFFDCF809325
:10021000C6000895CF93DF93EC018881882331F0E5
:1002200021960E94020189918111FBCFDF91CF912C
:100230000895E0ECF0E080818823ECF78091C6001F
:1002400008951F920F920FB60F9211242F933F9390
:100250004F935F936F937F938F939F93AF93BF93CE
:10026000EF93FF93E0911201F09113010995FF9133
:10027000EF91BF91AF919F918F917F916F915F911E
:100280004F913F912F910F900FBE0F901F90189597
:10029000BB274A3031F4992322F4BDE29095819531
:1002A0009F4F0C945401BB27FB015527AA27880FA9
:1002B000991FAA1FA41710F0A41B83955051B9F7DA
:1002C000A05DAA3308F0A95DA193009779F7B11159
:1002D000B1931192CB010C946D01DC01FC01672FED
:1002E00071917723E1F7329704C07C916D9370830D
:0E02F0006291AE17BF07C8F30895F894FFCFD0
:1002FE00414443300041444331003A20000A0D008E
:00000001FF
