S0140000327852656164416E616C6F672E7372656398
S11300000C9434000C9451000C9451000C94510045
S11300100C9451000C9451000C9451000C94510018
S11300200C9451000C9451000C9451000C94510008
S11300300C9451000C9451000C9451000C945100F8
S11300400C9451000C9451000C941F010C94510019
S11300500C9451000C947D000C9451000C945100AC
S11300600C9451000C94510011241FBECFEFD8E022
S1130070DEBFCDBF11E0A0E0B1E0EAEFF2E002C0E4
S113008005900D92A031B107D9F721E0A0E1B1E0CC
S113009001C01D92A431B207E1F70E94E1000C9463
S11300A07B010C940000ECE7F0E010828081806416
S11300B08083EAE7F0E080818760808380818062CA
S11300C0808310927B008081806880838081886037
S11300D0808308950E945300ECE7F0E080818F7DD7
S11300E08083EAE7F0E080818064808378940895D7
S11300F00E9417010E94000108951F920F920FB6EB
S11301000F9211242F933F934F935F936F937F9399
S11301108F939F93AF93BF93EF93FF93CF93DF930B
S1130120CDB7DEB72A97DEBFCDBFF89480917800B3
S11301302091790090E0922B90931101809310010B
S113014080911001909111014AE0BE016F5F7F4FD1
S11301500E94460180917C0080FF03C085E091E00D
S113016002C080E091E00E9408018AE091E00E94D0
S11301700801CE0101960E9408018DE091E00E94E1
S11301800801ECE7F0E0908181E08927808378948E
S11301902A960FB6F894DEBF0FBECDBFDF91CF9184
S11301A0FF91EF91BF91AF919F918F917F916F914B
S11301B05F914F913F912F910F900FBE0F901F9021
S11301C018950E946A0088E790E00E94E800FFCF3B
S11301D090931301809312011092C50087E68093D7
S11301E0C400E1ECF0E080818861808380818068D4
S11301F08083E2ECF0E080818660808378940895C7
S1130200E0ECF0E0908195FFFDCF8093C600089567
S1130210CF93DF93EC018881882331F021960E94EB
S1130220000189918111FBCFDF91CF910895E0EC1A
S1130230F0E080818823ECF78091C60008951F9236
S11302400F920FB60F9211242F933F934F935F9306
S11302506F937F938F939F93AF93BF93EF93FF938A
S1130260E0911201F09113010995FF91EF91BF9173
S1130270AF919F918F917F916F915F914F913F913A
S11302802F910F900FBE0F901F901895BB274A30E7
S113029031F4992322F4BDE2909581959F4F0C94FB
S11302A05201BB27FB015527AA27880F991FAA1FB4
S11302B0A41710F0A41B83955051B9F7A05DAA337D
S11302C008F0A95DA193009779F7B111B193119248
S11302D0CB010C946B01DC01FC01672F7191772336
S11302E0E1F7329704C07C916D9370836291AE17ED
S10D02F0BF07C8F30895F894FFCF88
S11302FA414443300041444331003A20000A0D008E
S9030000FC
